{
  "_format": "hh-sol-artifact-1",
  "contractName": "FrameBreaker",
  "sourceName": "blockchain/contracts/FrameBreaker.sol",
  "abi": [
    {
      "inputs": [
        {
          "internalType": "uint256",
          "name": "_submissionFee",
          "type": "uint256"
        }
      ],
      "stateMutability": "nonpayable",
      "type": "constructor"
    },
    {
      "anonymous": false,
      "inputs": [
        {
          "indexed": true,
          "internalType": "address",
          "name": "newContract",
          "type": "address"
        }
      ],
      "name": "ContractUpgraded",
      "type": "event"
    },
    {
      "anonymous": false,
      "inputs": [
        {
          "indexed": true,
          "internalType": "address",
          "name": "player",
          "type": "address"
        },
        {
          "indexed": false,
          "internalType": "string",
          "name": "playerName",
          "type": "string"
        },
        {
          "indexed": false,
          "internalType": "uint256",
          "name": "score",
          "type": "uint256"
        },
        {
          "indexed": false,
          "internalType": "uint256",
          "name": "timestamp",
          "type": "uint256"
        }
      ],
      "name": "ScoreSubmitted",
      "type": "event"
    },
    {
      "inputs": [],
      "name": "MAX_NAME_LENGTH",
      "outputs": [
        {
          "internalType": "uint256",
          "name": "",
          "type": "uint256"
        }
      ],
      "stateMutability": "view",
      "type": "function"
    },
    {
      "inputs": [],
      "name": "MAX_SCORES",
      "outputs": [
        {
          "internalType": "uint256",
          "name": "",
          "type": "uint256"
        }
      ],
      "stateMutability": "view",
      "type": "function"
    },
    {
      "inputs": [],
      "name": "MIN_SCORE",
      "outputs": [
        {
          "internalType": "uint256",
          "name": "",
          "type": "uint256"
        }
      ],
      "stateMutability": "view",
      "type": "function"
    },
    {
      "inputs": [
        {
          "internalType": "address",
          "name": "_player",
          "type": "address"
        }
      ],
      "name": "getPlayerScores",
      "outputs": [
        {
          "components": [
            {
              "internalType": "string",
              "name": "playerName",
              "type": "string"
            },
            {
              "internalType": "uint256",
              "name": "score",
              "type": "uint256"
            },
            {
              "internalType": "uint256",
              "name": "timestamp",
              "type": "uint256"
            },
            {
              "internalType": "address",
              "name": "player",
              "type": "address"
            }
          ],
          "internalType": "struct FrameBreaker.Score[]",
          "name": "",
          "type": "tuple[]"
        }
      ],
      "stateMutability": "view",
      "type": "function"
    },
    {
      "inputs": [
        {
          "internalType": "uint256",
          "name": "_index",
          "type": "uint256"
        }
      ],
      "name": "getScore",
      "outputs": [
        {
          "components": [
            {
              "internalType": "string",
              "name": "playerName",
              "type": "string"
            },
            {
              "internalType": "uint256",
              "name": "score",
              "type": "uint256"
            },
            {
              "internalType": "uint256",
              "name": "timestamp",
              "type": "uint256"
            },
            {
              "internalType": "address",
              "name": "player",
              "type": "address"
            }
          ],
          "internalType": "struct FrameBreaker.Score",
          "name": "",
          "type": "tuple"
        }
      ],
      "stateMutability": "view",
      "type": "function"
    },
    {
      "inputs": [],
      "name": "getStats",
      "outputs": [
        {
          "internalType": "uint256",
          "name": "_totalSubmissions",
          "type": "uint256"
        },
        {
          "internalType": "uint256",
          "name": "_submissionFee",
          "type": "uint256"
        },
        {
          "internalType": "uint256",
          "name": "_contractBalance",
          "type": "uint256"
        }
      ],
      "stateMutability": "view",
      "type": "function"
    },
    {
      "inputs": [
        {
          "internalType": "uint256",
          "name": "_count",
          "type": "uint256"
        }
      ],
      "name": "getTopScores",
      "outputs": [
        {
          "components": [
            {
              "internalType": "string",
              "name": "playerName",
              "type": "string"
            },
            {
              "internalType": "uint256",
              "name": "score",
              "type": "uint256"
            },
            {
              "internalType": "uint256",
              "name": "timestamp",
              "type": "uint256"
            },
            {
              "internalType": "address",
              "name": "player",
              "type": "address"
            }
          ],
          "internalType": "struct FrameBreaker.Score[]",
          "name": "",
          "type": "tuple[]"
        }
      ],
      "stateMutability": "view",
      "type": "function"
    },
    {
      "inputs": [],
      "name": "owner",
      "outputs": [
        {
          "internalType": "address",
          "name": "",
          "type": "address"
        }
      ],
      "stateMutability": "view",
      "type": "function"
    },
    {
      "inputs": [],
      "name": "paused",
      "outputs": [
        {
          "internalType": "bool",
          "name": "",
          "type": "bool"
        }
      ],
      "stateMutability": "view",
      "type": "function"
    },
    {
      "inputs": [
        {
          "internalType": "address",
          "name": "",
          "type": "address"
        },
        {
          "internalType": "uint256",
          "name": "",
          "type": "uint256"
        }
      ],
      "name": "playerScores",
      "outputs": [
        {
          "internalType": "uint256",
          "name": "",
          "type": "uint256"
        }
      ],
      "stateMutability": "view",
      "type": "function"
    },
    {
      "inputs": [
        {
          "internalType": "uint256",
          "name": "",
          "type": "uint256"
        }
      ],
      "name": "scores",
      "outputs": [
        {
          "internalType": "string",
          "name": "playerName",
          "type": "string"
        },
        {
          "internalType": "uint256",
          "name": "score",
          "type": "uint256"
        },
        {
          "internalType": "uint256",
          "name": "timestamp",
          "type": "uint256"
        },
        {
          "internalType": "address",
          "name": "player",
          "type": "address"
        }
      ],
      "stateMutability": "view",
      "type": "function"
    },
    {
      "inputs": [
        {
          "internalType": "bool",
          "name": "_paused",
          "type": "bool"
        }
      ],
      "name": "setPaused",
      "outputs": [],
      "stateMutability": "nonpayable",
      "type": "function"
    },
    {
      "inputs": [],
      "name": "submissionFee",
      "outputs": [
        {
          "internalType": "uint256",
          "name": "",
          "type": "uint256"
        }
      ],
      "stateMutability": "view",
      "type": "function"
    },
    {
      "inputs": [
        {
          "internalType": "string",
          "name": "_playerName",
          "type": "string"
        },
        {
          "internalType": "uint256",
          "name": "_score",
          "type": "uint256"
        }
      ],
      "name": "submitScore",
      "outputs": [],
      "stateMutability": "payable",
      "type": "function"
    },
    {
      "inputs": [],
      "name": "totalSubmissions",
      "outputs": [
        {
          "internalType": "uint256",
          "name": "",
          "type": "uint256"
        }
      ],
      "stateMutability": "view",
      "type": "function"
    },
    {
      "inputs": [
        {
          "internalType": "address",
          "name": "_newOwner",
          "type": "address"
        }
      ],
      "name": "transferOwnership",
      "outputs": [],
      "stateMutability": "nonpayable",
      "type": "function"
    },
    {
      "inputs": [
        {
          "internalType": "uint256",
          "name": "_newFee",
          "type": "uint256"
        }
      ],
      "name": "updateSubmissionFee",
      "outputs": [],
      "stateMutability": "nonpayable",
      "type": "function"
    },
    {
      "inputs": [
        {
          "internalType": "uint256",
          "name": "_amount",
          "type": "uint256"
        }
      ],
      "name": "withdrawFees",
      "outputs": [],
      "stateMutability": "nonpayable",
      "type": "function"
    },
    {
      "stateMutability": "payable",
      "type": "receive"
    }
  ],
  "bytecode": "0x608060405234801561001057600080fd5b5060405161152338038061152383398101604081905261002f9161004f565b600080546001600160a01b03191633178155600191909155600255610068565b60006020828403121561006157600080fd5b5051919050565b6114ac806100776000396000f3fe60806040526004361061010d5760003560e01c80638607498511610095578063a395401611610064578063a3954016146102f1578063b162f25714610307578063c59d484714610327578063e888894214610356578063f2fde38b1461036c57600080fd5b806386074985146102575780638da5cb5b1461026c578063968ffe34146102a4578063a05660da146102d157600080fd5b806340b89270116100dc57806340b89270146101c55780635962be17146101da5780635c975abb146101ed5780635e318e071461021757806373055bc31461023757600080fd5b80630e1af57b1461011957806316c38b3c1461014f5780632e0ef422146101715780632ee691a31461019557600080fd5b3661011457005b600080fd5b34801561012557600080fd5b50610139610134366004610fb2565b61038c565b6040516101469190611058565b60405180910390f35b34801561015b57600080fd5b5061016f61016a366004611072565b6104b9565b005b34801561017d57600080fd5b506101876103e881565b604051908152602001610146565b3480156101a157600080fd5b506101b56101b0366004610fb2565b6104f6565b6040516101469493929190611094565b3480156101d157600080fd5b50610187600081565b61016f6101e83660046110e2565b6105b1565b3480156101f957600080fd5b506005546102079060ff1681565b6040519015158152602001610146565b34801561022357600080fd5b5061016f610232366004610fb2565b610824565b34801561024357600080fd5b506101876102523660046111b3565b6108d2565b34801561026357600080fd5b50610187600a81565b34801561027857600080fd5b5060005461028c906001600160a01b031681565b6040516001600160a01b039091168152602001610146565b3480156102b057600080fd5b506102c46102bf366004610fb2565b610903565b60405161014691906111dd565b3480156102dd57600080fd5b5061016f6102ec366004610fb2565b610cc7565b3480156102fd57600080fd5b5061018760025481565b34801561031357600080fd5b506102c461032236600461123f565b610cf6565b34801561033357600080fd5b506002546001544760408051938452602084019290925290820152606001610146565b34801561036257600080fd5b5061018760015481565b34801561037857600080fd5b5061016f61038736600461123f565b610eeb565b610394610f81565b60025482106103e15760405162461bcd60e51b815260206004820152601460248201527314d8dbdc9948191bd95cc81b9bdd08195e1a5cdd60621b60448201526064015b60405180910390fd5b600082815260036020526040908190208151608081019092528054829082906104099061125a565b80601f01602080910402602001604051908101604052809291908181526020018280546104359061125a565b80156104825780601f1061045757610100808354040283529160200191610482565b820191906000526020600020905b81548152906001019060200180831161046557829003601f168201915b505050918352505060018201546020820152600282015460408201526003909101546001600160a01b031660609091015292915050565b6000546001600160a01b031633146104e35760405162461bcd60e51b81526004016103d890611294565b6005805460ff1916911515919091179055565b6003602052600090815260409020805481906105119061125a565b80601f016020809104026020016040519081016040528092919081815260200182805461053d9061125a565b801561058a5780601f1061055f5761010080835404028352916020019161058a565b820191906000526020600020905b81548152906001019060200180831161056d57829003601f168201915b5050505060018301546002840154600390940154929390929091506001600160a01b031684565b808260008151116105fb5760405162461bcd60e51b81526020600482015260146024820152734e616d652063616e6e6f7420626520656d70747960601b60448201526064016103d8565b600a8151111561063d5760405162461bcd60e51b815260206004820152600d60248201526c4e616d6520746f6f206c6f6e6760981b60448201526064016103d8565b60015434101561068f5760405162461bcd60e51b815260206004820152601b60248201527f496e73756666696369656e74207375626d697373696f6e20666565000000000060448201526064016103d8565b60055460ff16156106d75760405162461bcd60e51b815260206004820152601260248201527110dbdb9d1c9858dd081a5cc81c185d5cd95960721b60448201526064016103d8565b60408051608081018252858152602080820186905242828401523360608301526002546000908152600390915291909120815182919081906107199082611320565b50602082810151600183810191909155604080850151600280860191909155606090950151600390940180546001600160a01b0319166001600160a01b03909516949094179093553360009081526004835292832084548154928301825590845291832001558154919061078c836113f6565b9190505550336001600160a01b03167ff37ae49b60d757d76834b35373affa2ee41ac05f1a40e6731d9328f70199881d8686426040516107ce9392919061140f565b60405180910390a260015434111561081d5760015433906108fc906107f39034611434565b6040518115909202916000818181858888f1935050505015801561081b573d6000803e3d6000fd5b505b5050505050565b6000546001600160a01b0316331461084e5760405162461bcd60e51b81526004016103d890611294565b478111156108955760405162461bcd60e51b8152602060048201526014602482015273496e73756666696369656e742062616c616e636560601b60448201526064016103d8565b600080546040516001600160a01b039091169183156108fc02918491818181858888f193505050501580156108ce573d6000803e3d6000fd5b5050565b600460205281600052604060002081815481106108ee57600080fd5b90600052602060002001600091509150505481565b606060008211801561091757506002548211155b6109535760405162461bcd60e51b815260206004820152600d60248201526c125b9d985b1a590818dbdd5b9d609a1b60448201526064016103d8565b60008267ffffffffffffffff81111561096e5761096e6110cc565b6040519080825280602002602001820160405280156109a757816020015b610994610f81565b81526020019060019003908161098c5790505b509050600060025467ffffffffffffffff8111156109c7576109c76110cc565b6040519080825280602002602001820160405280156109f0578160200160208202803683370190505b50905060005b600254811015610a305780828281518110610a1357610a1361144d565b602090810291909101015280610a28816113f6565b9150506109f6565b5060005b6001600254610a439190611434565b811015610b8f5760005b600182600254610a5d9190611434565b610a679190611434565b811015610b7c576003600084610a7e846001611463565b81518110610a8e57610a8e61144d565b602002602001015181526020019081526020016000206001015460036000858481518110610abe57610abe61144d565b60200260200101518152602001908152602001600020600101541015610b6a576000838281518110610af257610af261144d565b6020026020010151905083826001610b0a9190611463565b81518110610b1a57610b1a61144d565b6020026020010151848381518110610b3457610b3461144d565b60209081029190910101528084610b4c846001611463565b81518110610b5c57610b5c61144d565b602002602001018181525050505b80610b74816113f6565b915050610a4d565b5080610b87816113f6565b915050610a34565b5060005b84811015610cbe5760036000838381518110610bb157610bb161144d565b60200260200101518152602001908152602001600020604051806080016040529081600082018054610be29061125a565b80601f0160208091040260200160405190810160405280929190818152602001828054610c0e9061125a565b8015610c5b5780601f10610c3057610100808354040283529160200191610c5b565b820191906000526020600020905b815481529060010190602001808311610c3e57829003601f168201915b505050918352505060018201546020820152600282015460408201526003909101546001600160a01b03166060909101528351849083908110610ca057610ca061144d565b60200260200101819052508080610cb6906113f6565b915050610b93565b50909392505050565b6000546001600160a01b03163314610cf15760405162461bcd60e51b81526004016103d890611294565b600155565b6001600160a01b0381166000908152600460209081526040808320805482518185028101850190935280835260609493830182828015610d5557602002820191906000526020600020905b815481526020019060010190808311610d41575b505050505090506000815167ffffffffffffffff811115610d7857610d786110cc565b604051908082528060200260200182016040528015610db157816020015b610d9e610f81565b815260200190600190039081610d965790505b50905060005b8251811015610ee35760036000848381518110610dd657610dd661144d565b60200260200101518152602001908152602001600020604051806080016040529081600082018054610e079061125a565b80601f0160208091040260200160405190810160405280929190818152602001828054610e339061125a565b8015610e805780601f10610e5557610100808354040283529160200191610e80565b820191906000526020600020905b815481529060010190602001808311610e6357829003601f168201915b505050918352505060018201546020820152600282015460408201526003909101546001600160a01b03166060909101528251839083908110610ec557610ec561144d565b60200260200101819052508080610edb906113f6565b915050610db7565b509392505050565b6000546001600160a01b03163314610f155760405162461bcd60e51b81526004016103d890611294565b6001600160a01b038116610f5f5760405162461bcd60e51b815260206004820152601160248201527024b73b30b634b2103732bb9037bbb732b960791b60448201526064016103d8565b600080546001600160a01b0319166001600160a01b0392909216919091179055565b604051806080016040528060608152602001600081526020016000815260200160006001600160a01b031681525090565b600060208284031215610fc457600080fd5b5035919050565b6000815180845260005b81811015610ff157602081850181015186830182015201610fd5565b506000602082860101526020601f19601f83011685010191505092915050565b60008151608084526110266080850182610fcb565b60208481015190860152604080850151908601526060938401516001600160a01b031693909401929092525090919050565b60208152600061106b6020830184611011565b9392505050565b60006020828403121561108457600080fd5b8135801515811461106b57600080fd5b6080815260006110a76080830187610fcb565b60208301959095525060408101929092526001600160a01b0316606090910152919050565b634e487b7160e01b600052604160045260246000fd5b600080604083850312156110f557600080fd5b823567ffffffffffffffff8082111561110d57600080fd5b818501915085601f83011261112157600080fd5b813581811115611133576111336110cc565b604051601f8201601f19908116603f0116810190838211818310171561115b5761115b6110cc565b8160405282815288602084870101111561117457600080fd5b826020860160208301376000602093820184015298969091013596505050505050565b80356001600160a01b03811681146111ae57600080fd5b919050565b600080604083850312156111c657600080fd5b6111cf83611197565b946020939093013593505050565b6000602080830181845280855180835260408601915060408160051b870101925083870160005b8281101561123257603f19888603018452611220858351611011565b94509285019290850190600101611204565b5092979650505050505050565b60006020828403121561125157600080fd5b61106b82611197565b600181811c9082168061126e57607f821691505b60208210810361128e57634e487b7160e01b600052602260045260246000fd5b50919050565b60208082526021908201527f4f6e6c79206f776e65722063616e2063616c6c20746869732066756e6374696f6040820152603760f91b606082015260800190565b601f82111561131b57600081815260208120601f850160051c810160208610156112fc5750805b601f850160051c820191505b8181101561081b57828155600101611308565b505050565b815167ffffffffffffffff81111561133a5761133a6110cc565b61134e81611348845461125a565b846112d5565b602080601f831160018114611383576000841561136b5750858301515b600019600386901b1c1916600185901b17855561081b565b600085815260208120601f198616915b828110156113b257888601518255948401946001909101908401611393565b50858210156113d05787850151600019600388901b60f8161c191681555b5050505050600190811b01905550565b634e487b7160e01b600052601160045260246000fd5b600060018201611408576114086113e0565b5060010190565b6060815260006114226060830186610fcb565b60208301949094525060400152919050565b81810381811115611447576114476113e0565b92915050565b634e487b7160e01b600052603260045260246000fd5b80820180821115611447576114476113e056fea2646970667358221220d175b6b6f83cb5371cd6a64638818b97f721dcc0ae73b0757ba8efc52682139564736f6c63430008130033",
  "linkReferences": {},
  "deployedLinkReferences": {}
}