{"abi":[{"type":"constructor","inputs":[{"name":"_initialSubmissionFee","type":"uint256","internalType":"uint256"},{"name":"_maxLeaderboardSize","type":"uint256","internalType":"uint256"}],"stateMutability":"nonpayable"},{"type":"receive","stateMutability":"payable"},{"type":"function","name":"MAX_LEADERBOARD_SIZE","inputs":[],"outputs":[{"name":"","type":"uint256","internalType":"uint256"}],"stateMutability":"view"},{"type":"function","name":"MAX_NAME_LENGTH","inputs":[],"outputs":[{"name":"","type":"uint256","internalType":"uint256"}],"stateMutability":"view"},{"type":"function","name":"MIN_SCORE","inputs":[],"outputs":[{"name":"","type":"uint256","internalType":"uint256"}],"stateMutability":"view"},{"type":"function","name":"getLeaderboard","inputs":[{"name":"_topN","type":"uint256","internalType":"uint256"}],"outputs":[{"name":"","type":"tuple[]","internalType":"struct FrameBreaker.Score[]","components":[{"name":"playerName","type":"string","internalType":"string"},{"name":"score","type":"uint256","internalType":"uint256"},{"name":"timestamp","type":"uint256","internalType":"uint256"},{"name":"player","type":"address","internalType":"address"}]}],"stateMutability":"view"},{"type":"function","name":"getLeaderboardSize","inputs":[],"outputs":[{"name":"","type":"uint256","internalType":"uint256"}],"stateMutability":"view"},{"type":"function","name":"getStats","inputs":[],"outputs":[{"name":"_totalSubmissions","type":"uint256","internalType":"uint256"},{"name":"_submissionFee","type":"uint256","internalType":"uint256"},{"name":"_contractBalance","type":"uint256","internalType":"uint256"}],"stateMutability":"view"},{"type":"function","name":"owner","inputs":[],"outputs":[{"name":"","type":"address","internalType":"address"}],"stateMutability":"view"},{"type":"function","name":"pause","inputs":[],"outputs":[],"stateMutability":"nonpayable"},{"type":"function","name":"paused","inputs":[],"outputs":[{"name":"","type":"bool","internalType":"bool"}],"stateMutability":"view"},{"type":"function","name":"renounceOwnership","inputs":[],"outputs":[],"stateMutability":"nonpayable"},{"type":"function","name":"setSubmissionFee","inputs":[{"name":"_newFee","type":"uint256","internalType":"uint256"}],"outputs":[],"stateMutability":"nonpayable"},{"type":"function","name":"submissionFee","inputs":[],"outputs":[{"name":"","type":"uint256","internalType":"uint256"}],"stateMutability":"view"},{"type":"function","name":"submitScore","inputs":[{"name":"_playerName","type":"string","internalType":"string"},{"name":"_score","type":"uint256","internalType":"uint256"}],"outputs":[],"stateMutability":"payable"},{"type":"function","name":"totalSubmissions","inputs":[],"outputs":[{"name":"","type":"uint256","internalType":"uint256"}],"stateMutability":"view"},{"type":"function","name":"transferOwnership","inputs":[{"name":"newOwner","type":"address","internalType":"address"}],"outputs":[],"stateMutability":"nonpayable"},{"type":"function","name":"unpause","inputs":[],"outputs":[],"stateMutability":"nonpayable"},{"type":"function","name":"upgradeContract","inputs":[{"name":"_newContract","type":"address","internalType":"address"}],"outputs":[],"stateMutability":"nonpayable"},{"type":"function","name":"version","inputs":[],"outputs":[{"name":"","type":"string","internalType":"string"}],"stateMutability":"pure"},{"type":"function","name":"withdrawFees","inputs":[{"name":"_to","type":"address","internalType":"address payable"}],"outputs":[],"stateMutability":"nonpayable"},{"type":"event","name":"ContractUpgraded","inputs":[{"name":"newContract","type":"address","indexed":true,"internalType":"address"}],"anonymous":false},{"type":"event","name":"FeesWithdrawn","inputs":[{"name":"to","type":"address","indexed":true,"internalType":"address"},{"name":"amount","type":"uint256","indexed":false,"internalType":"uint256"}],"anonymous":false},{"type":"event","name":"OwnershipTransferred","inputs":[{"name":"previousOwner","type":"address","indexed":true,"internalType":"address"},{"name":"newOwner","type":"address","indexed":true,"internalType":"address"}],"anonymous":false},{"type":"event","name":"Paused","inputs":[{"name":"account","type":"address","indexed":false,"internalType":"address"}],"anonymous":false},{"type":"event","name":"ScoreSubmitted","inputs":[{"name":"player","type":"address","indexed":true,"internalType":"address"},{"name":"playerName","type":"string","indexed":false,"internalType":"string"},{"name":"score","type":"uint256","indexed":false,"internalType":"uint256"},{"name":"timestamp","type":"uint256","indexed":false,"internalType":"uint256"}],"anonymous":false},{"type":"event","name":"SubmissionFeeUpdated","inputs":[{"name":"newFee","type":"uint256","indexed":false,"internalType":"uint256"}],"anonymous":false},{"type":"event","name":"Unpaused","inputs":[{"name":"account","type":"address","indexed":false,"internalType":"address"}],"anonymous":false},{"type":"error","name":"InsufficientFee","inputs":[{"name":"required","type":"uint256","internalType":"uint256"},{"name":"sent","type":"uint256","internalType":"uint256"}]},{"type":"error","name":"InvalidLeaderboardRequest","inputs":[{"name":"topN","type":"uint256","internalType":"uint256"}]},{"type":"error","name":"InvalidName","inputs":[{"name":"name","type":"string","internalType":"string"}]},{"type":"error","name":"InvalidNewContractAddress","inputs":[{"name":"addr","type":"address","internalType":"address"}]},{"type":"error","name":"InvalidScore","inputs":[{"name":"score","type":"uint256","internalType":"uint256"}]},{"type":"error","name":"NoFeesToWithdraw","inputs":[]},{"type":"error","name":"RefundFailed","inputs":[]},{"type":"error","name":"WithdrawFailed","inputs":[]}],"bytecode":{"object":"0x60a060405234801561001057600080fd5b506040516115f53803806115f583398101604081905261002f916100a7565b61003833610057565b6000805460ff60a01b19169055600180556002919091556080526100cb565b600080546001600160a01b038381166001600160a01b0319831681178455604051919092169283917f8be0079c531659141344cd1fd0a4f28419497f9722a3daafe3b4186f6b6457e09190a35050565b600080604083850312156100ba57600080fd5b505080516020909101519092909150565b6080516115016100f46000396000818161031001528181610af00152610b5901526115016000f3fe6080604052600436106101185760003560e01c80638456cb59116100a0578063c59d484711610064578063c59d4847146102cf578063db877142146102fe578063e888894214610332578063eb2c022314610348578063f2fde38b1461036857600080fd5b80638456cb591461023a578063860749851461024f5780638da5cb5b14610264578063a34b46fe1461028c578063a3954016146102b957600080fd5b806354fd4d50116100e757806354fd4d50146101945780635962be17146101c85780635c975abb146101db5780636752071c14610205578063715018a61461022557600080fd5b8063164e68de146101245780631b3e4db1146101465780633f4ba83a1461016a57806340b892701461017f57600080fd5b3661011f57005b600080fd5b34801561013057600080fd5b5061014461013f36600461100f565b610388565b005b34801561015257600080fd5b506004545b6040519081526020015b60405180910390f35b34801561017657600080fd5b50610144610480565b34801561018b57600080fd5b50610157600081565b3480156101a057600080fd5b5060408051808201825260058152640312e312e360dc1b602082015290516101619190611079565b6101446101d636600461108c565b610492565b3480156101e757600080fd5b50600054600160a01b900460ff166040519015158152602001610161565b34801561021157600080fd5b50610144610220366004611104565b61065e565b34801561023157600080fd5b506101446106a1565b34801561024657600080fd5b506101446106b3565b34801561025b57600080fd5b50610157600a81565b34801561027057600080fd5b506000546040516001600160a01b039091168152602001610161565b34801561029857600080fd5b506102ac6102a7366004611104565b6106c3565b604051610161919061111d565b3480156102c557600080fd5b5061015760035481565b3480156102db57600080fd5b506003546002544760408051938452602084019290925290820152606001610161565b34801561030a57600080fd5b506101577f000000000000000000000000000000000000000000000000000000000000000081565b34801561033e57600080fd5b5061015760025481565b34801561035457600080fd5b5061014461036336600461100f565b6108af565b34801561037457600080fd5b5061014461038336600461100f565b610920565b610390610996565b6103986109f0565b4760008190036103bb57604051630d00db4d60e31b815260040160405180910390fd5b6000826001600160a01b03168260405160006040518083038185875af1925050503d8060008114610408576040519150601f19603f3d011682016040523d82523d6000602084013e61040d565b606091505b505090508061042f57604051631d42c86760e21b815260040160405180910390fd5b826001600160a01b03167fc0819c13be868895eb93e40eaceb96de976442fa1d404e5c55f14bb65a8c489a8360405161046a91815260200190565b60405180910390a2505061047d60018055565b50565b610488610996565b610490610a49565b565b61049a610a9e565b6104a26109f0565b6104b0565b60405180910390fd5b8115806104bd5750600a82115b156104df578282604051637f19f48d60e01b81526004016104a79291906111da565b60025434101561050f5760025460405163a458261b60e01b815260048101919091523460248201526044016104a7565b6040805160a06020601f860181900402820181019092526080810184815260009282919087908790819085018382808284376000920191909152505050908252506020810184905242604082015233606090910152905061056f81610aeb565b6003805490600061057f8361120c565b9190505550336001600160a01b03167ff37ae49b60d757d76834b35373affa2ee41ac05f1a40e6731d9328f70199881d858585426040516105c39493929190611225565b60405180910390a26000600254346105db919061124c565b9050801561064e57604051600090339083908381818185875af1925050503d8060008114610625576040519150601f19603f3d011682016040523d82523d6000602084013e61062a565b606091505b505090508061064c57604051633c31275160e21b815260040160405180910390fd5b505b505061065960018055565b505050565b610666610996565b60028190556040518181527fee9ee15ee3f86b3e384dd1e594b75f24a0c619b40232d8ba45a0b030716b56419060200160405180910390a150565b6106a9610996565b6104906000610f17565b6106bb610996565b610490610f67565b6060816000036106e957604051637517e19f60e11b8152600481018390526024016104a7565b60045460009083116106fb57826106ff565b6004545b905060008167ffffffffffffffff81111561071c5761071c611265565b60405190808252806020026020018201604052801561078157816020015b61076e604051806080016040528060608152602001600081526020016000815260200160006001600160a01b031681525090565b81526020019060019003908161073a5790505b50905060005b828110156108a757600481815481106107a2576107a261127b565b90600052602060002090600402016040518060800160405290816000820180546107cb90611291565b80601f01602080910402602001604051908101604052809291908181526020018280546107f790611291565b80156108445780601f1061081957610100808354040283529160200191610844565b820191906000526020600020905b81548152906001019060200180831161082757829003601f168201915b505050918352505060018201546020820152600282015460408201526003909101546001600160a01b031660609091015282518390839081106108895761088961127b565b6020026020010181905250808061089f9061120c565b915050610787565b509392505050565b6108b7610996565b6001600160a01b0381166108e957604051630af2ca8b60e31b81526001600160a01b03821660048201526024016104a7565b6040516001600160a01b038216907fc68d6b394bbff225c75b6ba60811fafb0da04351338aa28c9614981c55287be290600090a250565b610928610996565b6001600160a01b03811661098d5760405162461bcd60e51b815260206004820152602660248201527f4f776e61626c653a206e6577206f776e657220697320746865207a65726f206160448201526564647265737360d01b60648201526084016104a7565b61047d81610f17565b6000546001600160a01b031633146104905760405162461bcd60e51b815260206004820181905260248201527f4f776e61626c653a2063616c6c6572206973206e6f7420746865206f776e657260448201526064016104a7565b600260015403610a425760405162461bcd60e51b815260206004820152601f60248201527f5265656e7472616e637947756172643a207265656e7472616e742063616c6c0060448201526064016104a7565b6002600155565b610a51610faa565b6000805460ff60a01b191690557f5db9ee0a495bf2e6ff9c91a7834c1ba4fdd244a5e8aa4e537bd38aeae4b073aa335b6040516001600160a01b03909116815260200160405180910390a1565b600054600160a01b900460ff16156104905760405162461bcd60e51b815260206004820152601060248201526f14185d5cd8589b194e881c185d5cd95960821b60448201526064016104a7565b6004547f00000000000000000000000000000000000000000000000000000000000000001180610b4f575060048054610b269060019061124c565b81548110610b3657610b3661127b565b9060005260206000209060040201600101548160200151115b1561047d576004547f00000000000000000000000000000000000000000000000000000000000000001115610c065760048054600181018255600082905282518392919091027f8a35acfbc15ff81a39ae7d344fd709f28e8600b4aa8c65c6b64bfe7fe36bd19b01908190610bc49082611319565b506020820151600182015560408201516002820155606090910151600390910180546001600160a01b0319166001600160a01b03909216919091179055610c86565b60048054829190610c199060019061124c565b81548110610c2957610c2961127b565b600091825260209091208251600490920201908190610c489082611319565b506020820151600182015560408201516002820155606090910151600390910180546001600160a01b0319166001600160a01b039092169190911790555b600454600090610c989060019061124c565b90505b600081118015610cfc57506004610cb360018361124c565b81548110610cc357610cc361127b565b90600052602060002090600402016001015460048281548110610ce857610ce861127b565b906000526020600020906004020160010154115b15610f135760006004610d1060018461124c565b81548110610d2057610d2061127b565b9060005260206000209060040201604051806080016040529081600082018054610d4990611291565b80601f0160208091040260200160405190810160405280929190818152602001828054610d7590611291565b8015610dc25780601f10610d9757610100808354040283529160200191610dc2565b820191906000526020600020905b815481529060010190602001808311610da557829003601f168201915b505050918352505060018201546020820152600282015460408201526003909101546001600160a01b0316606090910152600480549192509083908110610e0b57610e0b61127b565b90600052602060002090600402016004600184610e28919061124c565b81548110610e3857610e3861127b565b6000918252602090912060049091020180610e5383826113d9565b506001828101549082015560028083015490820155600391820154910180546001600160a01b0319166001600160a01b039092169190911790556004805482919084908110610ea457610ea461127b565b600091825260209091208251600490920201908190610ec39082611319565b506020820151600182015560408201516002820155606090910151600390910180546001600160a01b0319166001600160a01b0390921691909117905581610f0a816114b4565b92505050610c9b565b5050565b600080546001600160a01b038381166001600160a01b0319831681178455604051919092169283917f8be0079c531659141344cd1fd0a4f28419497f9722a3daafe3b4186f6b6457e09190a35050565b610f6f610a9e565b6000805460ff60a01b1916600160a01b1790557f62e78cea01bee320cd4e420270b5ea74000d11b0c9f74754ebdbfc544b05a258610a813390565b600054600160a01b900460ff166104905760405162461bcd60e51b815260206004820152601460248201527314185d5cd8589b194e881b9bdd081c185d5cd95960621b60448201526064016104a7565b6001600160a01b038116811461047d57600080fd5b60006020828403121561102157600080fd5b813561102c81610ffa565b9392505050565b6000815180845260005b818110156110595760208185018101518683018201520161103d565b506000602082860101526020601f19601f83011685010191505092915050565b60208152600061102c6020830184611033565b6000806000604084860312156110a157600080fd5b833567ffffffffffffffff808211156110b957600080fd5b818601915086601f8301126110cd57600080fd5b8135818111156110dc57600080fd5b8760208285010111156110ee57600080fd5b6020928301989097509590910135949350505050565b60006020828403121561111657600080fd5b5035919050565b60006020808301818452808551808352604092508286019150828160051b87010184880160005b838110156111a357603f1989840301855281516080815181865261116a82870182611033565b838b0151878c0152898401518a8801526060938401516001600160a01b0316939096019290925250509386019390860190600101611144565b509098975050505050505050565b81835281816020850137506000828201602090810191909152601f909101601f19169091010190565b6020815260006111ee6020830184866111b1565b949350505050565b634e487b7160e01b600052601160045260246000fd5b60006001820161121e5761121e6111f6565b5060010190565b6060815260006112396060830186886111b1565b6020830194909452506040015292915050565b8181038181111561125f5761125f6111f6565b92915050565b634e487b7160e01b600052604160045260246000fd5b634e487b7160e01b600052603260045260246000fd5b600181811c908216806112a557607f821691505b6020821081036112c557634e487b7160e01b600052602260045260246000fd5b50919050565b601f82111561065957600081815260208120601f850160051c810160208610156112f25750805b601f850160051c820191505b81811015611311578281556001016112fe565b505050505050565b815167ffffffffffffffff81111561133357611333611265565b611347816113418454611291565b846112cb565b602080601f83116001811461137c57600084156113645750858301515b600019600386901b1c1916600185901b178555611311565b600085815260208120601f198616915b828110156113ab5788860151825594840194600190910190840161138c565b50858210156113c95787850151600019600388901b60f8161c191681555b5050505050600190811b01905550565b8181036113e4575050565b6113ee8254611291565b67ffffffffffffffff81111561140657611406611265565b611414816113418454611291565b6000601f82116001811461144857600083156114305750848201545b600019600385901b1c1916600184901b1784556114ad565b600085815260209020601f19841690600086815260209020845b838110156114825782860154825560019586019590910190602001611462565b50858310156114a05781850154600019600388901b60f8161c191681555b50505060018360011b0184555b5050505050565b6000816114c3576114c36111f6565b50600019019056fea2646970667358221220be15eb69cf7b8f92c73b62703ee6b62d41fd5ee1e58e5608632e30fca565729364736f6c63430008140033","linkReferences":{}},"methodIdentifiers":{"MAX_LEADERBOARD_SIZE()":"db877142","MAX_NAME_LENGTH()":"86074985","MIN_SCORE()":"40b89270","getLeaderboard(uint256)":"a34b46fe","getLeaderboardSize()":"1b3e4db1","getStats()":"c59d4847","owner()":"8da5cb5b","pause()":"8456cb59","paused()":"5c975abb","renounceOwnership()":"715018a6","setSubmissionFee(uint256)":"6752071c","submissionFee()":"e8888942","submitScore(string,uint256)":"5962be17","totalSubmissions()":"a3954016","transferOwnership(address)":"f2fde38b","unpause()":"3f4ba83a","upgradeContract(address)":"eb2c0223","version()":"54fd4d50","withdrawFees(address)":"164e68de"},"id":0}